:10000000AEEF02F00000000000EF00F00000000082
:0A0010000000000000000000F3D71C
:0E001C00270E0D6E0D2EFED700000000120004
:0A002A00F8DF8484F6DF84941200EE
:0E003400030E0D6E0D2EFED700000000120010
:100042007F0E00016515006E00C065F084908492F9
:10005200BF0E001600C065F0008C00C065F000C045
:0600620083FFE2DF120043
:1000680065C0E9FF66C0EAFFEE500001671905E1C7
:1000780065C000F066C001F010D065C000F066C031
:1000880001F0654B662B00C0E9FF01C0EAFFEECF27
:0C00980000F00052E5E1006A016A12006D
:1000A4000B6A0A6A096A00500402F4CF09F0F3CF1C
:1000B40008F001500502F4CF0BF0F3CF0AF0005022
:1000C4000502F3500926F4500A22E86A0B22015073
:1000D4000402F3500926F4500A22E86A0B2208C0ED
:1000E40000F009C001F00AC002F00BC003F01200D6
:1000F400120E006E000E016E830E0024E16E0F0ED0
:100104000120E26EFF0EE66E93DF92DF848084941A
:100114008482848481DF83CF65F08494849288DF31
:1001240087DF120E006E000E016E830E0024E16E56
:0E0134000F0E0120E26EE66A65C000F01200B8
:0E01420084948480849265C083FF6EDF120077
:1001500084908492B80E00016511836E66DF1200F0
:100160007F0E00016515016E01C065F001AC03D082
:0C017000808A829002D0809A8280120067
:10017C005D50070801E283D04F505B5C006E50C0AD
:10018C0001F0000E01564EC004F0000E056E84DF27
:10019C0000C063F001C064F05CC065F04CDF5DC072
:1001AC0065F0D0DF5F6A4E505F5C4AE25C507F08BE
:1001BC0001E265D05CC065F0CDDF5DC065F0C2DFEB
:1001CC005CC065F038DF90DF00C060F08DDF00C0F0
:1001DC0060F05CC065F0BEDF5DC065F0B3DF5CC095
:1001EC0065F029DF63515124F66E64515220F76E8D
:1001FC00000E64BFFF0E5320F86E0900F5CF00F01F
:10020C0000C061F0634B642B001C626F0AD062C0AB
:10021C0060F010D061C060F00DD000016151601B26
:10022C0009D05E50000AF3E05E50010AF3E05E5024
:10023C00020AF3E060C065F07EDF5C2A5F2AB3D768
:10024C005CC065F087DF5DC065F07CDF5CC065F08D
:10025C00F2DEFF0E616F626B0CD061C060F061C0AA
:10026C0065F069DF0CD062C060F062C065F063DFDE
:10027C0006D05E50000AF1E05E50010AF4E0120074
:10028C005F6A5BC0E9FF5CC0EAFFEE5215E05DC03F
:10029C0065F05EC066F05BC0E9FF5CC0EAFFEECFC4
:1002AC0067F0DCDE000E011802E1000E001804E11C
:0E02BC005B4A5C2A5F2AE5D75FC000F01200A3
:1002CA000001616B626B5BC0E9FF5CC0EAFFEE5242
:1002DA0016E05DC065F05EC066F05BC0E9FF5CC019
:1002EA00EAFFEECF67F0BBDE000E011802E1000E56
:1002FA00001805E05B4A5C2A614B622BE4D761C0B7
:08030A0000F062C001F01200D6
:10031200809A8280566A565007080EE356C065F0EE
:1003220016DF556A55503F0805E354C065F008DFF3
:10033200552AF8D7562AEFD78290808A566A5650A5
:1003420007080EE356C065F002DF556A55503F08B4
:1003520005E354C065F0F4DE552AF8D7562AEFD7E4
:02036200120087
:100364000900F5CFE6FF0006FBE10106F9E1120002
:10037400296A276A286A9396969496909692929AF6
:1003840094908196120E006E000E016E830E00246E
:10039400E16E0F0E0120E26EE66A84908492809AE8
:1003A400828081863F0E836E3EDEC00E836E3BDE0E
:1003B400808A82903F0E836E36DEC00E836E33DEFB
:0203C400120025
:1003C60054C051F055C052F056C053F059C04FF0CA
:1003D6005AC050F057C04EF058C02AF0010E296E90
:0203E600120003
:1003E800596A2950000A0EE1050E4E6E070E2A6E54
:1003F800620E516E080E526E000E536E200E4F6E36
:10040800000E506E59505424E96E000E5520EA6EC5
:10041800EE5216E059505424E96E000E5520EA6E4B
:10042800EECF5BF056C05CF057C05DF058C05EF090
:10043800A1DE4E50010F006E00505626592AE2D711
:020448001200A0
:10044A0054C004F055C005F004C002F005C003F022
:10045A00044A052A56C000F057C001F0564A572AE6
:10046A0000C0E9FF01C0EAFF02C0E1FF03C0E2FFEA
:10047A00EECFE6FF02C0E9FF03C0EAFFEE5201E059
:0C048A00E3D754C000F055C001F0120090
:10049600000E551802E1000E541804E12BC054F06A
:1004A6002CC055F05450551003E1006A016A52D031
:1004B60054C0E9FF55C0EAFFEECF00F0005203E159
:1004C600006A016A47D054C05BF055C05CF056C064
:1004D6005DF057C05EF0F6DE5450002655500122FE
:1004E60000C054F001C055F000C0E9FF01C0EAFFAA
:1004F600EECF00F0005207E12B6A2C6A000E006E68
:10050600000E016E27D054C05BF055C05CF056C09B
:100516005DF057C05EF0B7DE000E016E5450002647
:100526005550012200C02BF001C02CF000C0E9FF9D
:1005360001C0EAFFEE5208E02BC0E1FF2CC0E2FF4B
:10054600E66A2B4A2C2A02D02B6A2C6A54C000F089
:0605560055C001F0120087
:10055C002AEC05F00D0E0B6E2D0E0C6ED70E0D6EDB
:10056C000D2EFED70C2EFCD70B2EFAD70000000058
:10057C00070EB46EC26A0F0EC16E956AF00E936EC2
:10058C00F3DE546AC0DE780E546E060E556E000E05
:10059C00566E050E576E070E586E200E596E000ED5
:1005AC005A6E0BDF070E0B6E170E0C6E6A0E0D6E6D
:1005BC000D2EFED70C2EFCD70B2EFAD7000081B8CF
:1005CC0053D0190E546E000E556E250E566E000E3D
:1005DC00576E5BDF00C056F001C057F0430E546EEF
:1005EC00000E556E2CDF546A556A150E566E000EB1
:1005FC00576E4BDF00C056F001C057F0380E546EEA
:10060C00000E556E1CDF546A556A170E566E000E9E
:10061C00576E3BDF00C056F001C057F02D0E546EE4
:10062C00000E556E0CDF430E546E000E556E0A0E06
:10063C00566E020E576E010E586ED0DE380E546E8A
:10064C00000E556E0A0E566E030E576E010E586E46
:10065C00C5DE2D0E546E000E556E0A0E566E050E2E
:0C066C00576E010E586EBADEAAD7FFD7F9
:100A540010EE15F0120E006E010E016E420EF66ECF
:0E0A64000A0EF76E000EF86EB2EC01F01200F2
:10067800000000000000004F000000070007001401
:100688007F147F14242A7F2A1223130864623649B0
:100698005522200005030000001C224100004122D1
:1006A8001C0014083E081408083E080850300000D2
:1006B800000808080808006060000020100804020C
:1006C8003E5149453E00427F400042615149462122
:1006D80041454B311814127F1027454545393C4A8E
:1006E80049493001710905033649494936064949DE
:1006F800291E003636000000563600000814224134
:10070800001414141414004122140802015109069B
:100718003E415D551E7E1111117E7F494949363E85
:10072800414141227F4141221C7F494949417F097A
:100738000909013E4149497A7F0808087F00417F3D
:1007480041002040413F017F081422417F40404042
:10075800407F020C027F7F0408107F3E4141413EEA
:100768007F090909063E4151215E7F09192946265C
:100778004949493201017F01013F4040403F1F2064
:1007880040201F3F4038403F631408146307087037
:1007980008076151494543007F41410002040810A0
:1007A800200041417F0004020102044040404040D3
:1007B800000003050020545454787F4444443838DA
:1007C80044444444384444447F385454541804043A
:1007D8007E0505085454543C7F0804047800447D81
:1007E80040002040443D007F1028440000417F40E5
:1007F800007C047C04787C08040478384444443839
:100808007C14141408081414147C7C08040400488C
:100818005454542404043F44443C4040207C1C204D
:1008280040201C3C4030403C44281028440C505088
:10083800503C4464544C4408364141000000770061
:1008480000004141360808082A1C08081C2A080824
:0A085800FFFFFFFFFF06090906007D
:10086200000000000000005F000000070007001405
:100872007F147F14242A7F2A1223130864623649C4
:100882005522500005030000001C224100004122B5
:100892001C00082A1C2A0808083E080800503000DC
:1008A2000008080808080030300000201008040280
:1008B2003E5149453E00427F400042615149462136
:1008C20041454B311814127F1027454545393C4AA2
:1008D20049493001710905033649494936064949F2
:1008E200291E003636000000563600000008142289
:1008F200411414141414412214080002015109066F
:10090200324979413E7E1111117E7F494949363E75
:10091200414141227F4141221C7F494949417F098E
:100922000901013E414151327F0808087F00417FA1
:1009320041002040413F017F081422417F40404056
:10094200407F0204027F7F0408107F3E4141413E06
:100952007F090909063E4151215E7F091929464650
:100962004949493101017F01013F4040403F1F2079
:1009720040201F7F2018207F63140814630304782B
:100982000403615149454300007F414102040810BC
:100992002041417F000004020102044040404040E7
:1009A200000102040020545454787F4844443838EB
:1009B20044444420384444487F3854545418087EF0
:1009C200090102081454543C7F0804047800447D51
:1009D20040002040443D00007F10284400417F40F9
:1009E200007C041804787C080404783844444438B1
:1009F2007C14141408081414187C7C080404084895
:100A020054545420043F4440203C4040207C1C204D
:100A120040201C3C4030403C44281028440C50509C
:100A2200503C4464544C44000836410000007F00AE
:100A320000004136080008082A1C08081C2A080879
:020A42007C0036
:020A44007C0034
:0C0A46003132337C3435367C37383900CF
:020A52007C0026
:020000040030CA
:0E000000270E3F1EFF8381FF0FC00FE00F4051
:00000001FF
