:1000000000EF08F00000000000EF00F0000000002A
:0A0010000000000000000000F3D71C
:10001C003EC002F03FC003F002C000F003C001F08C
:10002C00024A032A00C0E9FF01C0EAFFEE5201E0D8
:10003C00F3D73E50025C006E3F500358016E010E28
:08004C00005E000E015A1200D3
:1000540042C000F04206005227E03EC0E9FF3FC024
:10006400EAFFEE50000A0CE03EC0E9FF3FC0EAFFA1
:1000740040C0D9FF41C0DAFFEE50DE1801E10FD0D5
:100084003EC0E9FF3FC0EAFF40C0D9FF41C0DAFFEC
:10009400DE50EE5C006E016A000E015A07D03E4A43
:0E00A4003F2A404A412AD4D7006A016A12005E
:1000B2003EC0E9FF3FC0EAFFEE50401805E13EC0F6
:1000C20000F03FC001F010D03EC000F03FC001F090
:1000D2003E4A3F2A00C0E9FF01C0EAFFEECF00F02E
:0A00E2000052E6E1006A016A120014
:1000EC00000E3B1802E1000E3A1833E03AC0E9FF6B
:1000FC003BC0EAFFEE522DE03CC03EF03DC03FF06D
:10010C0087DF00C042F03AC03EF03BC03FF03CC03D
:10011C0040F03DC041F098DF000E011802E1000EE6
:10012C00001805E13AC000F03BC001F014D0010EFC
:10013C003A243E6E000E3B203F6E3CC0E9FF3DC0B2
:10014C00EAFFEECF40F0AFDF00C03AF001C03BF069
:08015C00C7D7006A016A120016
:10016400FF0E306EFF0E316EFF0E326EFF0E336ED9
:10017400CA0E346E010E356E000E366E000E376EEA
:10018400DC0E286E010E296E000E2A6E000E2B6EF8
:10019400FF0E2C6EFF0E2D6E000E2E6E000E2F6EB7
:1001A400AC8A900EAB6E948E949C9EAA03D0AECF74
:0601B40000F0FBD7120071
:1001BA000900F5CFE6FF0006FBE10106F9E11200AE
:1001CA00AECF01F0ABA202D0AB98AB8801C000F071
:0201DA00120011
:0A01DC00000E9EBA010E006E120024
:101000006F0E156E6E0E166E176A186A6F0E196ED9
:10101000660E1A6E660E1B6E1C6A3D0E0B6EE10E9E
:101020000C6E3F0E0D6E0D2EFED70C2EFCD70B2E28
:10103000FAD7000000000F0EC16E936A816A800E1D
:10104000D06E0F0EB46EF16AB886040EB06EE10E6B
:10105000AF6EAC84B2EC00F0070E0B6E170E0C6E88
:101060006A0E0D6E0D2EFED70C2EFCD70B2EFAD766
:101070000000EEEC00F0005211E01F0E386E000E82
:10108000396E18503826D8B0392AE5EC00F038C04F
:10109000E1FF39C0E2FF00C0E6FF182A1F0E3A6EDA
:1010A000000E3B6E150E3C6E000E3D6E76EC00F0B1
:1010B00000C01DF001C01EF0000E011802E1000E7C
:1010C000001808E0FF0E816E1DC0E1FF1EC0E2FFA8
:1010D000E66A186A1F0E3A6E000E3B6E190E3C6EE1
:1010E000000E3D6E76EC00F000C01DF001C01EF059
:1010F000000E011802E1000E001807E0816A1DC011
:10110000E1FF1EC0E2FFE66A186A000E010A02E172
:0C111000F40E1818D8B4186AACD7FFD73A
:020000040030CA
:0E000000270E3F1EFF8381FF0FC00FE00F4051
:00000001FF
