:040000005EEF03F0BC
:1000080000C017F001C016F00CC015F0F2A41ED005
:10001800F294420ED66EFE0ED76E18C000F019C0CC
:1000280001F01AC002F01BC003F0000E046E000EAF
:10003800056E000E066E7F0E076E2CD900C018F0F4
:1000480001C019F002C01AF003C01BF017C000F07D
:0A00580016C001F015C00CF01100F5
:080062000AAE029E000E12001E
:10006A000B840BAE40EF00F0010E036E026A016AC8
:0A007A00006A0A360232FF0E12007F
:0E008400026A016A006A086A036A000E12002E
:100092000B820BAE53EF00F0036802680168006840
:0800A2000A360232FF0E1200C3
:1000AA000CB097EF00F00CA23DEF01F00E6A000EC3
:1000BA000264AEEF00F0F00E0214D8A479EF00F05B
:1000CA00023A01380F0B02260138F00B016E003894
:1000DA000F0B01260038F00B006E08380F0B0026B4
:1000EA000838F00B086E0E84D89002BE92EF00F02A
:1000FA0008360036013602360E2A02BE92EF00F0AA
:10010A0008360036013602360E2A02BE92EF00F099
:10011A0008360036013602360E2A0E50036433EFD3
:10012A0001F0035E0BBC08AE38EF01F0D880800EF8
:10013A0008640030000E002201220222D8A038EF03
:10014A0001F0023201320032034A3DEF01F038EF8A
:10015A0001F001C002F000C001F008C000F0086A16
:10016A00000E0E860264E5EF00F0F00E0214D8A429
:10017A00CDEF00F0023A01380F0B02260138F00BDE
:10018A00016E00380F0B01260038F00B006E0E844A
:10019A00D89002BE92EF00F00036013602360E2ADF
:1001AA0002BE92EF00F00036013602360E2A02BE77
:1001BA0092EF00F00036013602360E2A92EF00F076
:1001CA0001C002F000C001F0006A000E0E960E880F
:1001DA00026412EF01F0F00E0214D8A4FDEF00F051
:1001EA00023A01380F0B02260138F00B016E0E8419
:1001FA00D89002BE92EF00F0013602360E2A02BEF5
:10020A0092EF00F0013602360E2A02BE92EF00F09B
:10021A00013602360E2A92EF00F001C002F0016A9E
:10022A00000E0E86026442EF01F0F00E0214D8A40A
:10023A0021EF01F0023A0E84D89002BE92EF00F04C
:10024A0002360E2A02BE92EF00F002360E2A02BED3
:10025A0092EF00F002360E2A92EF00F0010E0C6EB9
:10026A00FFDE45EF01F0020E0C6EF6DE45EF01F0FF
:10027A00040E0C6E09DF45EF01F0080E0C6EFDDE70
:02028A00120060
:10028C000900F5CFE6FF0006FBE10106F9E11200DB
:10029C00025006180E6E086A096A0B6A035007644E
:1002AC0041EF02F006500A6E068E028E03500B6E62
:1002BC000750036E000E0B6491EF01F00B50075EBC
:1002CC00D8B432EF02F0070E076400EF02F0075EBD
:1002DC0000C008F001C000F002C001F0026A074E35
:1002EC0032EF02F00764D5EF01F0075E00C008F0B2
:1002FC0001C000F0016A074E32EF02F00764B3EF61
:10030C0001F0075E00C008F0006A074E32EF02F001
:10031C0007649AEF01F00AC002F005C001F004C0B6
:10032C0000F0086A5BEF03F0030E0764A5EF01F021
:10033C00075E08380F0B086E074E32EF02F0D890AC
:10034C000832074E32EF02F0D8900832074E32EFE7
:10035C0002F0D890083232EF02F0030E0764C4EFBB
:10036C0001F0075E08380F0B086E0038F00B0826FA
:10037C0000380F0B006E074E32EF02F0D8900032AF
:10038C000832074E32EF02F0D89000320832074E96
:10039C0032EF02F0D8900032083232EF02F0030E46
:1003AC000764ECEF01F0075E08380F0B086E00389D
:1003BC00F00B082600380F0B006E0138F00B0026EE
:1003CC0001380F0B016E074E32EF02F0D89001325C
:1003DC0000320832074E32EF02F0D8900132003270
:1003EC000832074E32EF02F0D89001320032083258
:1003FC0032EF02F0030E07641DEF02F0075E0838BF
:10040C000F0B086E0038F00B082600380F0B006E2F
:10041C000138F00B002601380F0B016E0238F00B7F
:10042C00012602380F0B026E074E32EF02F0D89005
:10043C000232013200320832074E32EF02F0D8900D
:10044C000232013200320832074E32EF02F0D890FD
:10045C000232013200320832096A000E0EAE26EF6B
:10046C0003F0081E001E011E021E082A0022012293
:10047C00022226EF03F00750D8A447EF02F05BEFFF
:10048C0003F0096A02C00AF0028E068E0750035C64
:10049C00076ED8B419EF03F0070E0764E7EF02F00C
:1004AC00075E0450096E0550046E0650056E066A10
:1004BC00074E19EF03F0070E0764BCEF02F0075E5E
:1004CC000450096E0550046E056A074E19EF03F0CF
:1004DC00070E07649AEF02F0075E0450096E046A77
:1004EC00074E19EF03F0070E076481EF02F00AC004
:1004FC0002F05BEF03F0030E07648CEF02F0075E73
:10050C0009380F0B096E074E19EF03F0D89009321A
:10051C00074E19EF03F0D8900932074E19EF03F08C
:10052C00D890093219EF03F0030E0764ABEF02F019
:10053C00075E09380F0B096E0438F00B09260438D6
:10054C000F0B046E074E19EF03F0D89004320932EA
:10055C00074E19EF03F0D89004320932074E19EF09
:10056C0003F0D8900432093219EF03F0030E07643C
:10057C00D3EF02F0075E09380F0B096E0438F00B4D
:10058C00092604380F0B046E0538F00B04260538C9
:10059C000F0B056E074E19EF03F0D890053204329D
:1005AC000932074E19EF03F0D890053204320932A4
:1005BC00074E19EF03F0D89005320432093219EFC7
:1005CC0003F0030E076404EF03F0075E09380F0B0A
:1005DC00096E0438F00B092604380F0B046E05382D
:1005EC00F00B042605380F0B056E0638F00B0526AC
:1005FC0006380F0B066E074E19EF03F0D890063233
:10060C00053204320932074E19EF03F0D890063246
:10061C00053204320932074E19EF03F0D890063236
:10062C00053204320932086A000E0EAE26EF03F0D2
:10063C00091E041E051E061E092A04220522062276
:10064C0009500826045000220550012206500222AF
:10065C000EBE3DEF03F0D8A04CEF03F00232013296
:10066C0000320832033E4CEF03F056EF03F0D8B0E3
:10067C0051EF03F0000E081E001E011E021E082A78
:10068C000022012202220A7E51EF03F0010E0C6EB1
:10069C0006DD5DEF03F0020E0C6E01DD5DEF03F085
:1006AC00040E0C6EF0DC5DEF03F0000E0C6E12000D
:1006BC00186A196A1A6A1B6AA00EF26ED58ED59C3E
:1006CC00D59AD5868084EF0EB56EFF0ED66EFF0ED2
:1006DC00D76E938C938E7F0E936E0F0EC16EEE0EB3
:1006EC00B56E0F0E0C6E450E0D6E0D2EFED70C2E2C
:1006FC00FCD7E00EB56E0F0E0C6E450E0D6E0D2E6A
:10070C00FED70C2EFCD7E70EB56E560E0C6EB50E42
:10071C000D6E0D2EFED70C2EFCD700000000DFD77F
:02072C00FFD7F5
:020000040030CA
:0E000000230E381EFF8381FF0FC00FE00F405C
:00000001FF
