:1000000000EF08F00000000000EF00F0000000002A
:0A0010000000000000000000F3D71C
:0E001C00270E0D6E0D2EFED700000000120004
:0E002A00030E0D6E0D2EFED70000000012001A
:0A003800F1DF8484EFDF84941200EE
:1000420084908492B80E00016711836EF4DF12006F
:100052007F0E00016715006E00C067F084908492E5
:10006200BF0E001600C067F0008C00C067F000C031
:0600720083FFE1DF120034
:100078000B6A0A6A096A00500402F4CF09F0F3CF48
:1000880008F001500502F4CF0BF0F3CF0AF000504E
:100098000502F3500926F4500A22E86A0B2201509F
:1000A8000402F3500926F4500A22E86A0B2208C019
:1000B80000F009C001F00AC002F00BC003F0120002
:1000C8007F0E00016715016E01C067F001AC03D017
:0C00D800808A829002D0809A8280120000
:0E00E40084948480849267C083FFA4DF12009E
:1000F200120E006E000E016E830E0024E16E0F0ED2
:100102000120E26EFF0EE66E8FDF8EDF8480849424
:100112008482848482DF83CF67F08494849284DF34
:1001220083DF120E006E000E016E830E0024E16E5C
:0E0132000F0E0120E26EE66A67C000F01200B8
:0A014000000E9EBA010E006E1200C0
:10014A00AECF01F0ABA202D0AB98AB8801C000F0F1
:02015A00120091
:10015C0000016351070801E282D03C50615D006EE2
:10016C003DC001F0000E01563BC004F0000E056EC0
:10017C007DDF00C065F001C066F062C067F063DF30
:10018C0063C067F058DF5D6A3B505D5C49E26251C9
:10019C007F0801E264D062C067F090DF63C067F053
:1001AC004ADF62C067F04FDF9EDF00C05EF09BDF6E
:1001BC0000C05EF062C067F081DF63C067F03BDFB8
:1001CC0062C067F040DF65513E24F66E66513F20F9
:1001DC00F76E000E66BFFF0E4020F86E0900F5CFDB
:1001EC0000F000C05FF0654B662B001C606F09D0FF
:1001FC0060C05EF00FD05FC05EF00CD05F505E1A36
:10020C0009D06451000AF4E06451010AF4E064512D
:10021C00020AF4E05EC067F05FDF622B5D2AB4D7A0
:10022C0062C067F04BDF63C067F005DF62C067F048
:10023C000ADFFF0E5F6E606B0CD05FC05EF05FC0BC
:10024C0067F04ADF0CD060C05EF060C067F044DF3E
:10025C0006D06451000AF1E06451010AF4E0120086
:10026C002D6A2B6A2C6A9396969496909692929AF3
:10027C0094908196120E006E000E016E830E002477
:10028C00E16E0F0E0120E26EE66A84908492809AF1
:10029C00828081863F0E836EC9DEC00E836EC6DE01
:1002AC00808A82903F0E836EC1DEC00E836EBEDEEE
:0202BC0012002E
:1002BE00FF0E276EFF0E286EFF0E296EFF0E2A6EA2
:1002CE004A0E366E010E376E000E386E000E396E07
:1002DE00400E2E6E010E2F6E000E306E000E316E21
:1002EE00FF0E326EFF0E336E000E346E000E356E44
:1002FE00AC8A900EAB6E948E949C9EAA03D0AECF19
:06030E0000F0FBD7120015
:100314000900F5CFE6FF0006FBE10106F9E1120052
:10032400809A8280576A575007080EE357C067F0D7
:1003340086DE566A56503F0805E355C067F0D0DEA6
:10034400562AF8D7572AEFD78290808A576A57508F
:1003540007080EE357C067F072DE566A56503F082E
:1003640005E355C067F0BCDE562AF8D7572AEFD705
:02037400120075
:100376005B6A5C6A595241E05950FF0AD8A4590693
:10038600DCDE0050000A01E1FBD7DCDE00C05AF0DB
:100396005B505524E16E000E5620E26E00C0E6FF6B
:1003A6005B2A5C505724E96E000E5820EA6EEE5028
:1003B6005A1802E15C2A09D05C6A57C0E9FF58C0A6
:1003C600EAFFEE505A18D8B45C2A5C505724E96EFE
:1003D600000E5820EA6EEE50000A0EE15C505B5C9F
:1003E600006E016A000E015A00505524E16E01505C
:1003F6005620E26EE66A06D0BDD755C0E1FF56C06C
:06040600E2FFE66A1200AD
:10040C005A6A2D50000A0EE1050E3B6E070E3A6E2D
:10041C007A0E3E6E060E3F6E000E406E200E3C6E47
:10042C00000E3D6E5A505524E96E000E5620EA6EB1
:10043C00EE5216E05A505524E96E000E5620EA6E24
:10044C00EECF61F057C062F058C063F059C064F051
:10045C007FDE3B50010F006E005057265A2AE2D720
:02046C0012007C
:10046E0055C03EF056C03FF057C040F05AC03CF069
:10047E005BC03DF058C03BF059C03AF0010E2D6EF6
:02048E0012005A
:10086C0010EE15F0120E006E010E016E5A0EF66EA1
:0E087C00080EF76E000EF86E8AEC01F0120006
:1010000036EC04F0B70E0B6EA10E0C6EC30E0D6E17
:101010000D2EFED70C2EFCD70B2EFAD700000000A9
:101020000F0EC16E956A800ED06E0F0EB46EF16A0F
:10103000B886040EB06EE10EAF6EAC845FEC01F0CA
:10104000070E0B6E170E0C6E6A0E0D6E0D2EFED770
:101050000C2EFCD70B2EFAD7000036EC01F0556AA7
:1010600092EC01F0900E556E040E566E000E576E07
:10107000050E586E070E596E200E5A6E000E5B6EEE
:1010800037EC02F0070E0B6E170E0C6E6A0E0D6E2B
:101090000D2EFED70C2EFCD70B2EFAD70000180E03
:1010A000556E000E566E0A0E576E030E586E010EE8
:1010B000596E06EC02F0A0EC00F00050010A20E1AD
:1010C000410E556E000E566E150E576E000E586E80
:1010D000100E596EBBEC01F09C0E0C6ED70E0D6E0F
:1010E0000D2EFED70C2EFCD7410E556E000E566EFF
:1010F000280E576E050E586E010E596E06EC02F062
:04110000DAD7FFD764
:10049000000000000000004F0000000700070014EB
:1004A0007F147F14242A7F2A12231308646236499A
:1004B0005522200005030000001C224100004122BB
:1004C0001C0014083E081408083E080850300000BC
:1004D00000080808080800606000002010080402F6
:1004E0003E5149453E00427F40004261514946210C
:1004F00041454B311814127F1027454545393C4A78
:1005000049493001710905033649494936064949C7
:10051000291E00363600000056360000081422411D
:100520000014141414140041221408020151090685
:100530003E415D551E7E1111117E7F494949363E6F
:10054000414141227F4141221C7F494949417F0964
:100550000909013E4149497A7F0808087F00417F27
:1005600041002040413F017F081422417F4040402C
:10057000407F020C027F7F0408107F3E4141413ED4
:100580007F090909063E4151215E7F091929462646
:100590004949493201017F01013F4040403F1F204E
:1005A00040201F3F4038403F631408146307087021
:1005B00008076151494543007F414100020408108A
:1005C000200041417F0004020102044040404040BD
:1005D000000003050020545454787F4444443838C4
:1005E00044444444384444447F3854545418040424
:1005F0007E0505085454543C7F0804047800447D6B
:1006000040002040443D007F1028440000417F40CE
:10061000007C047C04787C08040478384444443822
:100620007C14141408081414147C7C080404004876
:100630005454542404043F44443C4040207C1C2037
:1006400040201C3C4030403C44281028440C505072
:10065000503C4464544C440836414100000077004B
:1006600000004141360808082A1C08081C2A08080E
:0A067000FFFFFFFFFF060909060067
:10067A00000000000000005F0000000700070014EF
:10068A007F147F14242A7F2A1223130864623649AE
:10069A005522500005030000001C2241000041229F
:1006AA001C00082A1C2A0808083E080800503000C6
:1006BA00000808080808003030000020100804026A
:1006CA003E5149453E00427F400042615149462120
:1006DA0041454B311814127F1027454545393C4A8C
:1006EA0049493001710905033649494936064949DC
:1006FA00291E003636000000563600000008142273
:10070A004114141414144122140800020151090658
:10071A00324979413E7E1111117E7F494949363E5F
:10072A00414141227F4141221C7F494949417F0978
:10073A000901013E414151327F0808087F00417F8B
:10074A0041002040413F017F081422417F40404040
:10075A00407F0204027F7F0408107F3E4141413EF0
:10076A007F090909063E4151215E7F09192946463A
:10077A004949493101017F01013F4040403F1F2063
:10078A0040201F7F2018207F631408146303047815
:10079A000403615149454300007F414102040810A6
:1007AA002041417F000004020102044040404040D1
:1007BA00000102040020545454787F4844443838D5
:1007CA0044444420384444487F3854545418087EDA
:1007DA00090102081454543C7F0804047800447D3B
:1007EA0040002040443D00007F10284400417F40E3
:1007FA00007C041804787C0804047838444444389B
:10080A007C14141408081414187C7C08040408487E
:10081A0054545420043F4440203C4040207C1C2037
:10082A0040201C3C4030403C44281028440C505086
:10083A00503C4464544C44000836410000007F0098
:10084A0000004136080008082A1C08081C2A080863
:03085A002F2F003D
:0F085D004461646F20526563656269646F3A009D
:020000040030CA
:0E000000270E3F1EFF8381FF0FC00FE00F4051
:00000001FF
