:100000006EEF00F00000000000EF00F000000000C4
:0A0010000000000000000000F3D71C
:0E001C00ACB202D00000FCD730C0ADFF120025
:0A002A00000E9EBA010E006E1200D7
:10003400AECF01F0ABA202D0AB98AB8801C000F008
:020044001200A8
:100046002F6A2CC0E9FF2DC0EAFFEECF2EF02E500E
:10005600000A0DE02EC030F0DEDF2F2A2F502C24B0
:10006600E96E000E2D20EA6EEECF2EF0F0D71200CC
:100076000900F5CFE6FF0006FBE10106F9E11200F3
:100086001C0E1B6E000E1C6E300E1D6E000E1E6EBC
:10009600340E286E000E296E000E2A6E000E2B6E90
:1000A6002A0E246E000E256E000E266E000E276E9A
:1000B600FF0E206EFF0E216E000E226E000E236EC6
:1000C600AC8A900EAB6E948E949C9EAA03D0AECF53
:0600D60000F0FBD7120050
:1000DC00530E156E740E166E610E176E720E186E30
:1000EC00740E196E1A6A070EB46EC26A0F0EC16EC8
:1000FC00956A836AB886040EB06EE10EAF6EAC845E
:10010C00BCDF070E0B6E170E0C6E6A0E0D6E0D2EED
:10011C00FED70C2EFCD70B2EFAD70000150E2C6E2A
:10012C00000E2D6E8ADF0A0E306E72DF0D0E306EF1
:10013C006FDF75DF005234E077DF00C01FF000C0C6
:10014C0030F066DF12D083802BD0838229D0838459
:10015C0027D0838625D0838823D0838A21D0838C93
:10016C001FD0838E1DD0836A1BD01F50300AEBE04A
:10017C001F50310AEAE01F50320AE9E01F50330ADF
:10018C00E8E01F50340AE7E01F50350AE6E01F5044
:10019C00360AE5E01F50370AE4E01F50380AE3E066
:0401AC00C8D7FFD7DA
:020000040030CA
:0E000000270E3F1EFF8381FF0FC00FE00F4051
:00000001FF
