:04000000F8EF03F022
:1000080000C018F001C017F00BC016F00CC015F0B6
:10001800F2A49DD0F294420ED66EFE0ED76E19C091
:1000280000F01AC001F01BC002F01CC003F0000E63
:10003800046E000E056E000E066E7F0E076EADD9BB
:1000480000C019F001C01AF002C01BF003C01CF078
:10005800000E046E000E056E000E066E7F0E076E13
:1000680019C000F01AC001F01BC002F01CC003F058
:10007800A4DB010ED8A4000E006E005202E0E70EC9
:10008800B56E000E046E000E056E400E066E810EF3
:10009800076E19C000F01AC001F01BC002F01CC0A6
:1000A80003F08BDB010ED8A4000E006E005202E0B4
:1000B800EE0EB56E000E046E000E056E300E066E66
:1000C800820E076E19C000F01AC001F01BC002F0C2
:1000D8001CC003F072DB010ED8A4000E006E0052A3
:1000E80002E0E00EB56E000E046E000E056E000E06
:1000F800066E830E076E19C000F01AC001F01BC00F
:1001080002F01CC003F059DB010ED8A4000E006EEB
:10011800005202E0E70EB56E000E046E000E056E8A
:10012800200E066E840E076E19C000F01AC001F08A
:100138001BC002F01CC003F040DB010ED8A4000E67
:10014800006E005204E0196A1A6A1B6A1C6A18C019
:1001580000F017C001F016C00BF015C00CF011002C
:080168000AAE029E000E120017
:100170000B840BAEC3EF00F0010E036E026A016A3E
:0A018000006A0A360232FF0E120078
:10018A000B820BAECFEF00F00368026801680068CB
:08019A000A360232FF0E1200CA
:0E01A200026A016A006A086A036A000E12000F
:1001B0000CB01AEF01F00CA2C0EF01F00E6A000EB5
:1001C000026431EF01F0F00E0214D8A4FCEF00F04D
:1001D000023A01380F0B02260138F00B016E00388D
:1001E0000F0B01260038F00B006E08380F0B0026AD
:1001F0000838F00B086E0E84D89002BE15EF01F09F
:1002000008360036013602360E2A02BE15EF01F01E
:1002100008360036013602360E2A02BE15EF01F00E
:1002200008360036013602360E2A0E500364B6EF49
:1002300001F0035E0BBC08AEBBEF01F0D880800E6E
:1002400008640030000E002201220222D8A0BBEF79
:1002500001F0023201320032034AC0EF01F0BBEF7D
:1002600001F001C002F000C001F008C000F0086A0F
:10027000000E0E86026468EF01F0F00E0214D8A49E
:1002800050EF01F0023A01380F0B02260138F00B53
:10029000016E00380F0B01260038F00B006E0E8443
:1002A000D89002BE15EF01F00036013602360E2A54
:1002B00002BE15EF01F00036013602360E2A02BEEC
:1002C00015EF01F00036013602360E2A15EF01F067
:1002D00001C002F000C001F0006A000E0E960E8808
:1002E000026495EF01F0F00E0214D8A480EF01F043
:1002F000023A01380F0B02260138F00B016E0E8412
:10030000D89002BE15EF01F0013602360E2A02BE69
:1003100015EF01F0013602360E2A02BE15EF01F08C
:10032000013602360E2A15EF01F001C002F0016A13
:10033000000E0E860264C5EF01F0F00E0214D8A480
:10034000A4EF01F0023A0E84D89002BE15EF01F03E
:1003500002360E2A02BE15EF01F002360E2A02BE48
:1003600015EF01F002360E2A15EF01F0010E0C6EAA
:10037000FFDEC8EF01F0020E0C6EF6DEC8EF01F0F2
:10038000040E0C6E02DFC8EF01F0080E0C6E09DFE0
:02039000120059
:100392000900F5CFE6FF0006FBE10106F9E11200D4
:1003A200025006180E6E086A096A0B6A0350076447
:1003B200C4EF02F006500A6E068E028E03500B6ED8
:1003C2000750036E000E0B6414EF02F00B50075E31
:1003D200D8B4B5EF02F0070E076483EF02F0075EB0
:1003E20000C008F001C000F002C001F0026A074E2E
:1003F200B5EF02F0076458EF02F0075E00C008F0A4
:1004020001C000F0016A074EB5EF02F0076436EF53
:1004120002F0075E00C008F0006A074EB5EF02F076
:1004220007641DEF02F00AC002F005C001F004C02B
:1004320000F0086ADEEF03F0030E076428EF02F013
:10044200075E08380F0B086E074EB5EF02F0D89022
:100452000832074EB5EF02F0D8900832074EB5EFDA
:1004620002F0D8900832B5EF02F0030E076447EFAE
:1004720002F0075E08380F0B086E0038F00B0826F2
:1004820000380F0B006E074EB5EF02F0D890003225
:100492000832074EB5EF02F0D89000320832074E0C
:1004A200B5EF02F0D89000320832B5EF02F0030E39
:1004B20007646FEF02F0075E08380F0B086E003812
:1004C200F00B082600380F0B006E0138F00B0026E7
:1004D20001380F0B016E074EB5EF02F0D8900132D2
:1004E20000320832074EB5EF02F0D89001320032E6
:1004F2000832074EB5EF02F0D890013200320832CE
:10050200B5EF02F0030E0764A0EF02F0075E0838B1
:100512000F0B086E0038F00B082600380F0B006E28
:100522000138F00B002601380F0B016E0238F00B78
:10053200012602380F0B026E074EB5EF02F0D8907B
:100542000232013200320832074EB5EF02F0D89083
:100552000232013200320832074EB5EF02F0D89073
:100562000232013200320832096A000E0EAEA9EFE1
:1005720003F0081E001E011E021E082A002201228C
:100582000222A9EF03F00750D8A4CAEF02F0DEEF6F
:1005920003F0096A02C00AF0028E068E0750035C5D
:1005A200076ED8B49CEF03F0070E07646AEF03F0FE
:1005B200075E0450096E0550046E0650056E066A09
:1005C200074E9CEF03F0070E07643FEF03F0075E50
:1005D2000450096E0550046E056A074E9CEF03F045
:1005E200070E07641DEF03F0075E0450096E046AEC
:1005F200074E9CEF03F0070E076404EF03F00AC0F6
:1006020002F0DEEF03F0030E07640FEF03F0075E64
:1006120009380F0B096E074E9CEF03F0D890093290
:10062200074E9CEF03F0D8900932074E9CEF03F07F
:10063200D89009329CEF03F0030E07642EEF03F00B
:10064200075E09380F0B096E0438F00B09260438CF
:100652000F0B046E074E9CEF03F0D8900432093260
:10066200074E9CEF03F0D89004320932074E9CEFFC
:1006720003F0D890043209329CEF03F0030E0764B2
:1006820056EF03F0075E09380F0B096E0438F00BC2
:10069200092604380F0B046E0538F00B04260538C2
:1006A2000F0B056E074E9CEF03F0D8900532043213
:1006B2000932074E9CEF03F0D8900532043209321A
:1006C200074E9CEF03F0D8900532043209329CEFBA
:1006D20003F0030E076487EF03F0075E09380F0B80
:1006E200096E0438F00B092604380F0B046E053826
:1006F200F00B042605380F0B056E0638F00B0526A5
:1007020006380F0B066E074E9CEF03F0D8900632A8
:10071200053204320932074E9CEF03F0D8900632BC
:10072200053204320932074E9CEF03F0D8900632AC
:10073200053204320932086A000E0EAEA9EF03F048
:10074200091E041E051E061E092A0422052206226F
:1007520009500826045000220550012206500222A8
:100762000EBEC0EF03F0D8A0CFEF03F00232013289
:1007720000320832033ECFEF03F0D9EF03F0D8B0D6
:10078200D4EF03F0000E081E001E011E021E082AEE
:100792000022012202220A7ED4EF03F0010E0C6E27
:1007A20006DDE0EF03F0020E0C6E01DDE0EF03F078
:1007B200040E0C6EE9DCE0EF03F0000E0C6E12008A
:1007C20003500718D8A4F5EF03F002500618D8A476
:1007D200F5EF03F001500518D8A4F5EF03F000502F
:0E07E2000418D8B4D8841200D8941200120063
:1007F000196A1A6A1B6A1C6AA00EF26ED58ED59C05
:10080000D59AD5868084EF0EB56EFF0ED66EFF0E9C
:10081000D76EFC0E926E0F0EC16E8080809280703B
:100820000D0E0B6EAF0E0C6EB60E0D6E0D2EFED7AE
:0E0830000C2EFCD70B2EFAD70000F1D7FFD705
:020000040030CA
:0E000000230E381EFF8381FF0FC00FE00F405C
:00000001FF
