:1000000000EF08F00000000000EF00F0000000002A
:0A0010000000000000000000F3D71C
:0C001C00100E0D6E0D2EFED7000012001D
:0A002800F9DF8484F7DF84941200EE
:0C003200000000000000000000001200B0
:10003E00120E006E000E016E830E0024E16E0F0E86
:10004E000120E26EFF0EE66EEDDFECDF848084941D
:10005E0084828484DCDF83CF7CF084948492E2DF1C
:10006E00E1DF120E006E000E016E830E0024E16EB3
:0E007E000F0E0120E26EE66A7CC000F0120058
:0E008C008494848084927CC083FFC8DF1200BD
:10009A007F0E00017C15016E01C07CF001AC03D01B
:0C00AA00808A829002D0809A828012002E
:1000B6000B6A0A6A096A00500402F4CF09F0F3CF0A
:1000C60008F001500502F4CF0BF0F3CF0AF0005010
:1000D6000502F3500926F4500A22E86A0B22015061
:1000E6000402F3500926F4500A22E86A0B2208C0DB
:1000F60000F009C001F00AC002F00BC003F01200C4
:100106007F0E00017C15006E00C07CF08490849206
:10011600BF0E001600C07CF0008C00C07CF000C052
:0601260083FF7FDF1200E1
:10012C0084908492B80E00017C11836E77DF1200EC
:10013C00086A096A100E0C6E013408360936045030
:10014C00085E0550D8A0053C095ED8B007D0045015
:10015C0008260550D8B0053C0926D8900036013643
:06016C000C2EEAD7120080
:100172000134083609360450085E0550D8A0053C03
:10018200095E003601360F0E0C6E01340836093650
:10019200045000A006D0085E0550D8A0053C095EB8
:1001A20005D008260550D8B0053C09260036013690
:1001B2000C2EEBD700B006D0045008260550D8B05C
:0801C200053C092600001200B3
:1001CA000001766B050E765D0AE276517425E16EC2
:1001DA00000E7521E26E200EE66E762BF3D776516D
:1001EA007425E16E000E7521E26EE66A7607765195
:1001FA007425776F000E7521786F0A0E046E000E53
:10020A00056E72C000F073C001F093DF08C000F001
:10021A0009C001F0300E002677C0E1FF78C0E2FF86
:10022A0000C0E6FF0A0E046E000E056E72C000F0F2
:10023A0073C001F07EDF00C072F001C073F0000EDF
:10024A00011802E1000E001801E102D07607CFD7AB
:02025A00120090
:10025C0000017451070801E282D04E50725D006EAD
:10026C004FC001F0000E015653C004F0000E056E95
:10027C001CDF00C07AF001C07BF073C07CF03DDF66
:10028C0074C07CF04DDF766B5350765D49E2735150
:10029C007F0801E264D073C07CF0F9DE74C07CF09E
:1002AC003FDF73C07CF029DFC4DE00C077F0C1DE15
:1002BC0000C077F073C07CF0EADE74C07CF030DFF5
:1002CC0073C07CF01ADF7A515024F66E7B515120AA
:1002DC00F76E000E7BBFFF0E5220F86E0900F5CFB3
:1002EC0000F000C078F07A4B7B2B001C796F09D0A2
:1002FC0079C077F00FD078C077F00CD07851771B9D
:10030C0009D07551000AF4E07551010AF4E07551F9
:10031C00020AF4E077C07CF0B3DE732B762BB4D7F3
:10032C0073C07CF0B4DE74C07CF0FADE73C07CF079
:10033C00E4DEFF0E786F796B0CD078C077F078C064
:10034C007CF09EDE0CD079C077F079C07CF098DE22
:10035C0006D07551000AF1E07551010AF4E0120063
:10036C0000016D6B5650000A0EE1050E536E070E20
:10037C00576EB80E506E080E516E000E526E200E57
:10038C004E6E000E4F6E6D516825E96E000E6921A0
:10039C00EA6EEE5216E06D516825E96E000E692189
:1003AC00EA6EEECF72F06AC073F06BC074F06CC082
:1003BC0075F04EDF5350010F006E00506A276D2B05
:0403CC00E2D7120062
:1003D00068C050F069C051F06AC052F06DC04EF074
:1003E0006EC04FF06BC053F06CC057F0010E566EEC
:0203F0001200F9
:1003F2000900F5CFE6FF0006FBE10106F9E1120074
:10040200566A546A556A9396969496909692929AE0
:1004120094908196120E006E000E016E830E0024DF
:10042200E16E0F0E0120E26EE66A84908492809A59
:10043200828081863F0E836EF6DDC00E836EF3DD11
:10044200808A82903F0E836EEEDDC00E836EEBDDFE
:02045200120096
:10045400809A828000016A6B6A5107080EE36AC0C1
:100464007CF062DE696B69513F0805E368C07CF08B
:100474000BDE692BF8D76A2BEFD78290808A6A6BE0
:100484006A5107080EE36AC07CF04EDE696B69515D
:100494003F0805E368C07CF0F7DD692BF8D76A2BC9
:0404A400EFD712007C
:1004A8000450000A08E10550000A05E1FF0E006E3D
:1004B8007F0E016E57D00D6A096A086A0150001054
:1004C800D8B4000C015005180A6E0ABE0D1E0B6A3E
:1004D80005AE05D0041E051E042AD8B4052A01AEAF
:1004E80005D0001E011E002AD8B4012A01500510AB
:1004F8000A6E0ABE10D039DE0BB020D00DAE000C4B
:10050800001E011E002AD8B4012A081E091E082A46
:10051800D8B4092A000C05AE0DD001BE07D0015091
:10052800096E0050086E016A006AE8D7016A006A1D
:10053800002A000C011E001E0B2ADDD7082AD8B499
:10054800092A0450085CD8A4D9D70550095CD8A456
:10055800D5D7096A086A002AD8B4012A01AECED7CD
:060568000000FF0C120070
:10056E0000016E6B6F6B68C070F069C071F0800E29
:10057E006919006E800E005C02E1000E685D0BE2F0
:10058E00010E6E6F000E6F6F68510008706F69C0BC
:10059E0071F0000E715770C072F071C073F06AC0C6
:1005AE0074F06BC075F00ADE060E6C6F000E6D6F88
:1005BE00000E006E6D51005C02E16C51000819E2F4
:1005CE006C516A25E16E6D516B21E26E010E6C5D10
:1005DE00006E000E6D59016E00506A25E96E0150D5
:1005EE006B21EA6EEECFE6FF010E6C5F000E6D5BC7
:1005FE00DFD76AC0E1FF6BC0E2FF200EE66E6E51E0
:10060E006F111AE06C6B6D6B6C516A25E96E6D5152
:10061E006B21EA6EEE50200A03E16C4B6D2BF4D782
:10062E00010E6C5F000E6D5B6C516A25E16E6D51B3
:0A063E006B21E26E2D0EE66E120035
:08064800BE6ABD98BD9A1200C4
:0A0650009494CA840C0EBD1212002F
:08065A009484F00EBD1612009D
:10066200CB50010F006E016A000E012268C004F037
:10067200000E056E1FDD060E026E00C004F001C002
:1006820005F0025005E005320432059EFF0FFAD74D
:10069200040E016E04C000F0015004E00036009028
:1006A200FF0FFBD7300E0014036E04C000F005C02C
:1006B20001F001320032019E01320032019E00C07F
:0C06C200BEFF0F0EBD160350BD1212004B
:100AD20010EE15F0390E006E010E016E980EF66ED4
:0E0AE2000A0EF76E000EF86EF9EC01F012002D
:1010000069EC05F093849388938A938C938E4D0EAC
:101010000B6E190E0C6E4F0E0D6E0D2EFED70C2E94
:10102000FCD70B2EFAD7000000000F0EC16E956A98
:10103000800ED06E0F0EB46EF16A01EC02F000016A
:10104000686B2AEC02F0CE0E686F060E696F000E18
:101050006A6F050E6B6F070E6C6F200E6D6F000EC2
:101060006E6FE8EC01F0030E0B6E8A0E0C6E550EDF
:101070000D6E0D2EFED70C2EFCD70B2EFAD70000CE
:101080000000150E686F000E696F0A0E6A6F030E7E
:101090006B6F010E6C6FB6EC01F04D0E0B6E190EFE
:1010A0000C6E4F0E0D6E0D2EFED70C2EFCD70B2E98
:1010B000FAD700000000CA80CA92F90ECB6E24EC69
:1010C00003F0686B2AEC02F03A50080AD8A4C8D0A2
:1010D00000013B0E686F000E696F0A0E6A6F030E07
:1010E0006B6F010E6C6FB6EC01F0030E0B6E8A0E87
:1010F0000C6E550E0D6E0D2EFED70C2EFCD70B2E42
:10110000FAD7000000004DC068F0000E696F600E55
:101110006A6F000E6B6FB7EC02F0600E686F000E26
:10112000696F0A0E6A6F050E6B6F010E6C6FB6EC7D
:1011300001F0030E0B6E8A0E0C6E550E0D6E0D2E09
:10114000FED70C2EFCD70B2EFAD700000000FF0EA6
:101150004D02F3CF00F0F4CF01F0640E046E000EE8
:10116000056E54EC02F000C068F031EC03F04D5015
:101170000008D8B04D6A640E4D5C02E3640E4D6EFB
:1011800081B417D0010E3A6E4D6A2DEC03F00001C8
:10119000686B2AEC02F0030E0B6E8A0E0C6E550E75
:1011A0000D6E0D2EFED70C2EFCD70B2EFAD700009D
:1011B000000081BC29D0640E4D5C14E200014D2A70
:1011C000686B2AEC02F0030E0B6E8A0E0C6E550E45
:1011D0000D6E0D2EFED70C2EFCD70B2EFAD700006D
:1011E000000012D00001686B2AEC02F0030E0B6EB7
:1011F0008A0E0C6E550E0D6E0D2EFED70C2EFCD7E2
:101200000B2EFAD70000000081BE29D04D500008F7
:1012100014E200014D06686B2AEC02F0030E0B6E1F
:101220008A0E0C6E550E0D6E0D2EFED70C2EFCD7B1
:101230000B2EFAD70000000012D00001686B2AECD8
:1012400002F0030E0B6E8A0E0C6E550E0D6E0D2EF7
:10125000FED70C2EFCD70B2EFAD70000000034D797
:10126000010E3A5C02E2010E3A6E3A50030802E2C5
:10127000030E3A6E3A50010AD8A4E6D00001270EB8
:10128000686F000E696F0A0E6A6F030E6B6F010EB6
:101290006C6FB6EC01F0030E0B6E8A0E0C6E550EE1
:1012A0000D6E0D2EFED70C2EFCD70B2EFAD700009C
:1012B000000038C068F039C069F0580E6A6F000E3F
:1012C0006B6FB7EC02F0580E686F000E696F0A0E74
:1012D0006A6F050E6B6F010E6C6FB6EC01F0030EBA
:1012E0000B6E8A0E0C6E550E0D6E0D2EFED70C2E4B
:1012F000FCD70B2EFAD700000000800E3918006EC4
:10130000800E005C02E1010E385C04E2010E386ED2
:10131000000E396E800E006E800E3918005C02E1FE
:101320003850FA0804E2FA0E386E000E396E81B8B1
:1013300013D000013A06686B2AEC02F0030E0B6E24
:101340008A0E0C6E550E0D6E0D2EFED70C2EFCD790
:101350000B2EFAD70000000081BA13D000013A2A00
:10136000686B2AEC02F0030E0B6E8A0E0C6E550EA3
:101370000D6E0D2EFED70C2EFCD70B2EFAD70000CB
:10138000000081BC22D0800E3918006E800E005CF7
:1013900002E10A0E385C05E30A0E3826000E3922F7
:1013A00002D0384A392A0001686B2AEC02F0030E99
:1013B0000B6E8A0E0C6E550E0D6E0D2EFED70C2E7A
:1013C000FCD70B2EFAD70000000081BE24D0800E7F
:1013D000006E800E3918005C02E138500A0805E3FF
:1013E000010E385E000E395A04D00A0E385E000E27
:1013F000395A0001686B2AEC02F0030E0B6E8A0E5C
:101400000C6E550E0D6E0D2EFED70C2EFCD70B2E2E
:10141000FAD70000000081B416D00001080E3A6E21
:1014200028EC03F0686B2AEC02F0030E0B6E8A0EB8
:101430000C6E550E0D6E0D2EFED70C2EFCD70B2EFE
:0C144000FAD70000000016D73FD6FFD7F7
:1006CE00000000000000004F0000000700070014AB
:1006DE007F147F14242A7F2A12231308646236495A
:1006EE005522200005030000001C2241000041227B
:1006FE001C0014083E081408083E0808503000007C
:10070E0000080808080800606000002010080402B5
:10071E003E5149453E00427F4000426151494621CB
:10072E0041454B311814127F1027454545393C4A37
:10073E004949300171090503364949493606494987
:10074E00291E0036360000005636000008142241DD
:10075E000014141414140041221408020151090645
:10076E003E415D551E7E1111117E7F494949363E2F
:10077E00414141227F4141221C7F494949417F0924
:10078E000909013E4149497A7F0808087F00417FE7
:10079E0041002040413F017F081422417F404040EC
:1007AE00407F020C027F7F0408107F3E4141413E94
:1007BE007F090909063E4151215E7F091929462606
:1007CE004949493201017F01013F4040403F1F200E
:1007DE0040201F3F4038403F6314081463070870E1
:1007EE0008076151494543007F414100020408104A
:1007FE00200041417F00040201020440404040407D
:10080E00000003050020545454787F444444383883
:10081E0044444444384444447F38545454180404E3
:10082E007E0505085454543C7F0804047800447D2A
:10083E0040002040443D007F1028440000417F408E
:10084E00007C047C04787C080404783844444438E2
:10085E007C14141408081414147C7C080404004836
:10086E005454542404043F44443C4040207C1C20F7
:10087E0040201C3C4030403C44281028440C505032
:10088E00503C4464544C440836414100000077000B
:10089E0000004141360808082A1C08081C2A0808CE
:0A08AE00FFFFFFFFFF060909060027
:1008B800000000000000005F0000000700070014AF
:1008C8007F147F14242A7F2A12231308646236496E
:1008D8005522500005030000001C2241000041225F
:1008E8001C00082A1C2A0808083E08080050300086
:1008F800000808080808003030000020100804022A
:100908003E5149453E00427F4000426151494621DF
:1009180041454B311814127F1027454545393C4A4B
:10092800494930017109050336494949360649499B
:10093800291E003636000000563600000008142232
:100948004114141414144122140800020151090618
:10095800324979413E7E1111117E7F494949363E1F
:10096800414141227F4141221C7F494949417F0938
:100978000901013E414151327F0808087F00417F4B
:1009880041002040413F017F081422417F40404000
:10099800407F0204027F7F0408107F3E4141413EB0
:1009A8007F090909063E4151215E7F0919294646FA
:1009B8004949493101017F01013F4040403F1F2023
:1009C80040201F7F2018207F6314081463030478D5
:1009D8000403615149454300007F41410204081066
:1009E8002041417F00000402010204404040404091
:1009F800000102040020545454787F484444383895
:100A080044444420384444487F3854545418087E99
:100A1800090102081454543C7F0804047800447DFA
:100A280040002040443D00007F10284400417F40A2
:100A3800007C041804787C0804047838444444385A
:100A48007C14141408081414187C7C08040408483E
:100A580054545420043F4440203C4040207C1C20F7
:100A680040201C3C4030403C44281028440C505046
:100A7800503C4464544C44000836410000007F0058
:100A880000004136080008082A1C08081C2A080823
:100A9800456C6574726F657374696D756C61646FAC
:020AA8007200DA
:100AAA004672657175656E6369612028487A293ACC
:010ABA00003B
:020ABB00010038
:010ABD000137
:100ABE00496E74656E73696461646520286D4129A1
:020ACE003A00EC
:010AD0000025
:020000040030CA
:0E000000230E381EFF8381FF0FC00FE00F405C
:00000001FF
